:020000040800F2
:1000000000800020792500081D2200081F2200081A
:1000100021220008232200082522000800000000F9
:10002000000000000000000000000000272200087F
:1000300029220008000000002B2200082D220008C1
:10004000C9250008C9250008C9250008C9250008D8
:10005000C9250008C9250008C9250008C9250008C8
:10006000C9250008C9250008C9250008C9250008B8
:10007000C9250008C9250008C9250008C9250008A8
:10008000C925000800000000C9250008C92500088E
:1000900035220008C9250008C9250008C92500081F
:1000A000C9250008C9250008C9250008C925000878
:1000B000C9250008C9250008C9250008C925000868
:1000C000C9250008C9250008C9250008C925000858
:1000D000C9250008C9250008C925000845220008CF
:1000E000C9250008C9250008C9250008C925000838
:1000F000C9250008C9250008C9250008000000001E
:1001000000000000C925000800000000C925000803
:10011000C925000800000000C9250008C9250008FD
:10012000C9250008C9250008C9250008C9250008F7
:10013000C92500080000000000000000C9250008D3
:10014000C9250008C92500080000000000000000C3
:10015000000000000000000000000000000000009F
:10016000000000000000000000000000C925000899
:10017000C925000800000000000000000000000089
:1001800000000000C9250008000000000000000079
:10019000000000000000000000000000000000005F
:1001A0000000000000000000C9250008C925000863
:1001B000C9250008C9250008C9250008000000005D
:1001C00000000000C9250008000000000000000039
:0801D000C9250008C92500083B
:1001D80010B5054C237833B9044B13B10448AFF379
:1001E80000800123237010BDB4050020000000002A
:1001F8004496000808B5034B1BB103490348AFF305
:10020800008008BD00000000B805002044960008E2
:1002180081F0004102E000BF83F0004330B54FEAAF
:1002280041044FEA430594EA050F08BF90EA020F1C
:100238001FBF54EA000C55EA020C7FEA645C7FEAAF
:10024800655C00F0E2804FEA5454D4EB5555B8BFD2
:100258006D420CDD2C4480EA020281EA030382EA43
:10026800000083EA010180EA020281EA0303362DD5
:1002780088BF30BD11F0004F4FEA01314FF4801CA8
:100288004CEA113102D0404261EB410113F0004FBA
:100298004FEA03334CEA133302D0524263EB430371
:1002A80094EA050F00F0A780A4F10104D5F1200E0F
:1002B8000DDB02FA0EFC22FA05F2801841F100016A
:1002C80003FA0EF2801843FA05F359410EE0A5F13E
:1002D80020050EF1200E012A03FA0EFC28BF4CF06F
:1002E800020C43FA05F3C01851EBE37101F0004525
:1002F80007D54FF0000EDCF1000C7EEB00006EEB32
:100308000101B1F5801F1BD3B1F5001F0CD34908BB
:100318005FEA30004FEA3C0C04F101044FEA445212
:1003280012F5800F80F09A80BCF1004F08BF5FEA99
:10033800500C50F1000041EB045141EA050130BD79
:100348005FEA4C0C404141EB0101013C28BFB1F58B
:10035800801FE9D291F0000F04BF01460020B1FAD6
:1003680081F308BF2033A3F10B03B3F120020CDAA9
:100378000C3208DD02F1140CC2F10C0201FA0CF087
:1003880021FA02F10CE002F11402D8BFC2F1200CEC
:1003980001FA02F120FA0CFCDCBF41EA0C019040A2
:1003A800E41AA2BF01EB0451294330BD6FEA0404EB
:1003B8001F3C1CDA0C340EDC04F11404C4F12002D6
:1003C80020FA04F001FA02F340EA030021FA04F3E8
:1003D80045EA030130BDC4F10C04C4F1200220FA3F
:1003E80002F001FA04F340EA0300294630BD21FA7D
:1003F80004F0294630BD94F0000F83F4801306BF43
:1004080081F480110134013D4EE77FEA645C18BF36
:100418007FEA655C29D094EA050F08BF90EA020FCD
:1004280005D054EA000C04BF1946104630BD91EAC5
:10043800030F1EBF0021002030BD5FEA545C05D1C8
:100448004000494128BF41F0004130BD14F5800407
:100458003CBF01F5801130BD01F0004545F0FE417B
:1004680041F470014FF0000030BD7FEA645C1ABFB0
:10047800194610467FEA655C1CBF0B46024650EAE7
:10048800013406BF52EA033591EA030F41F4002113
:1004980030BD00BF90F0000F04BF0021704730B599
:1004A8004FF4806404F132044FF000054FF000016E
:1004B80050E700BF90F0000F04BF0021704730B52F
:1004C8004FF4806404F1320410F0004548BF404204
:1004D8004FF000013EE700BF42004FEAE2014FEA59
:1004E80031014FEA02701FBF12F07F4393F07F4F34
:1004F80081F06051704732F07F4208BF704793F037
:100508007F4F04BF41F40021704730B54FF4607449
:1005180001F0004521F000411CE700BF50EA01024C
:1005280008BF704730B54FF000050AE050EA0102F5
:1005380008BF704730B511F0004502D5404261EB65
:1005480041014FF4806404F132045FEA915C3FF4A6
:10055800D8AE4FF003025FEADC0C18BF03325FEA43
:10056800DC0C18BF033202EBDC02C2F1200300FAF4
:1005780003FC20FA02F001FA03FE40EA0E0021FA19
:1005880002F11444BDE600BF70B54FF0FF0C4CF407
:10059800E06C1CEA11541DBF1CEA135594EA0C0FB9
:1005A80095EA0C0F00F0DEF82C4481EA030621EAF4
:1005B8004C5123EA4C5350EA013518BF52EA03352F
:1005C80041F4801143F4801338D0A0FB02CE4FF0E1
:1005D8000005E1FB02E506F00042E0FB03E54FF011
:1005E8000006E1FB03569CF0000F18BF4EF0010E09
:1005F800A4F1FF04B6F5007F64F5407404D25FEA05
:100608004E0E6D4146EB060642EAC62141EA5551B7
:100618004FEAC52040EA5E504FEACE2EB4F1FD0CF9
:1006280088BFBCF5E06F1ED8BEF1004F08BF5FEA77
:10063800500E50F1000041EB045170BD06F0004629
:1006480046EA010140EA020081EA0301B4EB5C04D6
:10065800C2BFD4EB0C0541EA045170BD41F48011CE
:100668004FF0000E013C00F3AB8014F1360FDEBFF3
:10067800002001F0004170BDC4F10004203C35DACF
:100688000C341BDC04F11404C4F1200500FA05F352
:1006980020FA04F001FA05F240EA020001F00042F3
:1006A80021F0004110EBD37021FA04F642EB060169
:1006B8005EEA430E08BF20EAD37070BDC4F10C0493
:1006C800C4F1200500FA04F320FA05F001FA04F257
:1006D80040EA020001F0004110EBD37041F1000143
:1006E8005EEA430E08BF20EAD37070BDC4F120054E
:1006F80000FA05F24EEA020E20FA04F301FA05F2B6
:1007080043EA020321FA04F001F0004121FA04F25D
:1007180020EA020000EBD3705EEA430E08BF20EA2D
:10072800D37070BD94F0000F0FD101F00046400067
:1007380041EB010111F4801F08BF013CF7D041EAE9
:10074800060195F0000F18BF704703F000465200ED
:1007580043EB030313F4801F08BF013DF7D043EABE
:100768000603704794EA0C0F0CEA135518BF95EA74
:100778000C0F0CD050EA410618BF52EA4306D1D1FB
:1007880081EA030101F000414FF0000070BD50EA1A
:10079800410606BF1046194652EA430619D094EAA4
:1007A8000C0F02D150EA013613D195EA0C0F05D18E
:1007B80052EA03361CBF104619460AD181EA0301E2
:1007C80001F0004141F0FE4141F470014FF000009A
:1007D80070BD41F0FE4141F4780170BD70B54FF035
:1007E800FF0C4CF4E06C1CEA11541DBF1CEA1355B5
:1007F80094EA0C0F95EA0C0F00F0A7F8A4EB050497
:1008080081EA030E52EA03354FEA013100F088808D
:100818004FEA03334FF0805545EA131343EA126356
:100828004FEA022245EA111545EA10654FEA00260B
:100838000EF000419D4208BF964244F1FD0404F5C4
:10084800407402D25B084FEA3202B61A65EB030520
:100858005B084FEA32024FF480104FF4002CB6EBDD
:10086800020E75EB030E22BFB61A754640EA0C005D
:100878005B084FEA3202B6EB020E75EB030E22BF9D
:10088800B61A754640EA5C005B084FEA3202B6EBDE
:10089800020E75EB030E22BFB61A754640EA9C009D
:1008A8005B084FEA3202B6EB020E75EB030E22BF6D
:1008B800B61A754640EADC0055EA060E18D04FEA2B
:1008C800051545EA16754FEA06164FEAC30343EACB
:1008D80052734FEAC2025FEA1C1CC0D111F4801F98
:1008E8000BD141EA00014FF000004FF0004CB6E791
:1008F80011F4801F04BF01430020B4F1FD0C88BF30
:10090800BCF5E06F3FF6AFAEB5EB030C04BFB6EB3A
:10091800020C5FEA500C50F1000041EB045170BD2D
:100928000EF0004E4EEA113114EB5C04C2BFD4EB5A
:100938000C0541EA045170BD41F480114FF0000EDE
:10094800013C90E645EA060E8DE60CEA135594EA5A
:100958000C0F08BF95EA0C0F3FF43BAF94EA0C0F5D
:100968000AD150EA01347FF434AF95EA0C0F7FF4D2
:1009780025AF104619462CE795EA0C0F06D152EA26
:1009880003353FF4FDAE1046194622E750EA41060A
:1009980018BF52EA43067FF4C5AE50EA41047FF41B
:1009A8000DAF52EA43057FF4EBAE12E74FF0FF3C80
:1009B80006E000BF4FF0010C02E000BF4FF0010C51
:1009C8004DF804CD4FEA410C7FEA6C5C4FEA430CCA
:1009D80018BF7FEA6C5C1BD001B050EA410C0CBF19
:1009E80052EA430C91EA030F02BF90EA020F00207B
:1009F800704710F1000F91EA030F58BF994208BFE2
:100A080090422CBFD8176FEAE37040F0010070479E
:100A18004FEA410C7FEA6C5C02D150EA013C07D1F5
:100A28004FEA430C7FEA6C5CD6D152EA033CD3D040
:100A38005DF8040B704700BF8446104662468C463A
:100A48001946634600E000BF01B5FFF7B7FF00286D
:100A580048BF10F1000F01BD4DF808EDFFF7F4FF96
:100A68000CBF012000205DF808FB00BF4DF808ED21
:100A7800FFF7EAFF34BF012000205DF808FB00BF44
:100A88004DF808EDFFF7E0FF94BF012000205DF866
:100A980008FB00BF4DF808EDFFF7CEFF94BF01201B
:100AA80000205DF808FB00BF4DF808EDFFF7C4FF14
:100AB80034BF012000205DF808FB00BF4FEA410267
:100AC80012F5001215D211D56FF47873B3EB625298
:100AD80012D94FEAC12343F0004343EA505311F0BF
:100AE800004F23FA02F018BF404270474FF0000051
:100AF800704750EA013005D111F0004008BF6FF08F
:100B0800004070474FF00000704700BF4A0011D204
:100B180012F5001211D20DD56FF47873B3EB62524F
:100B28000ED44FEAC12343F0004343EA505323FA5B
:100B380002F070474FF00000704750EA013002D1D0
:100B48004FF0FF3070474FF0000070474FEA410206
:100B5800B2F1E04324BFB3F5001CDCF1FE5C0DD913
:100B680001F0004C4FEAC0024CEA5070B2F1004F5D
:100B780040EB830008BF20F00100704711F0804F60
:100B880021D113F13872BCBF01F00040704741F425
:100B980080114FEA5252C2F11802C2F1200C10FA29
:100BA8000CF320FA02F018BF40F001004FEAC1230D
:100BB8004FEAD32303FA0CFC40EA0C0023FA02F3B1
:100BC8004FEA4303CCE77FEA625307D150EA013387
:100BD8001EBF4FF0FE4040F44000704701F0004057
:100BE80040F0FE4040F40000704700BF80F0004035
:100BF80002E000BF81F0004142001FBF5FEA4103ED
:100C080092EA030F7FEA226C7FEA236C6AD04FEAEC
:100C18001262D2EB1363C1BFD21841404840414031
:100C2800B8BF5B42192B88BF704710F0004F40F4E3
:100C3800000020F07F4018BF404211F0004F41F4FF
:100C4800000121F07F4118BF494292EA030F3FD0CB
:100C5800A2F1010241FA03FC10EB0C00C3F12003DE
:100C680001FA03F100F0004302D5494260EB40006D
:100C7800B0F5000F13D3B0F1807F06D340084FEAD8
:100C8800310102F10102FE2A51D2B1F1004F40EBCD
:100C9800C25008BF20F0010040EA03007047490035
:100CA80040EB0000013A28BFB0F5000FEDD2B0FAD2
:100CB80080FCACF1080CB2EB0C0200FA0CF0AABFF5
:100CC80000EBC25052421843BCBFD0401843704793
:100CD80092F0000F81F4000106BF80F40000013299
:100CE800013BB5E74FEA41037FEA226C18BF7FEA70
:100CF800236C21D092EA030F04D092F0000F08BFB2
:100D08000846704790EA010F1CBF0020704712F098
:100D18007F4F04D1400028BF40F00040704712F1D7
:100D280000723CBF00F50000704700F0004343F03C
:100D3800FE4040F4000070477FEA226216BF084672
:100D48007FEA23630146420206BF5FEA412390EA35
:100D5800010F40F4800070474FF0000304E000BF2B
:100D680010F0004348BF40425FEA000C08BF7047DC
:100D780043F0964301464FF000001CE050EA0102A0
:100D880008BF70474FF000030AE000BF50EA0102B5
:100D980008BF704711F0004302D5404261EB4101A2
:100DA8005FEA010C02BF84460146002043F0B643C7
:100DB80008BFA3F18053A3F50003BCFA8CF2083AEC
:100DC800A3EBC25310DB01FA02FC634400FA02FCF5
:100DD800C2F12002BCF1004F20FA02F243EB0200FC
:100DE80008BF20F00100704702F1200201FA02FC5E
:100DF800C2F1200250EA4C0021FA02F243EB020051
:100E080008BF20EADC7070474FF0FF0C1CEAD05294
:100E18001EBF1CEAD15392EA0C0F93EA0C0F6FD055
:100E28001A4480EA010C400218BF5FEA41211ED033
:100E38004FF0006343EA501043EA5111A0FB01311F
:100E48000CF00040B1F5000F3EBF490041EAD371F4
:100E58005B0040EA010062F17F02FD2A1DD8B3F170
:100E6800004F40EBC25008BF20F00100704790F0DF
:100E7800000F0CF0004C08BF49024CEA502040EA31
:100E880051207F3AC2BFD2F1FF0340EAC2507047F7
:100E980040F400004FF00003013A5DDC12F1190F35
:100EA800DCBF00F000407047C2F10002410021FAA7
:100EB80002F1C2F1200200FA02FC5FEA310040F1BF
:100EC800000053EA4C0308BF20EADC70704792F038
:100ED800000F00F0004C02BF400010F4000F013A70
:100EE800F9D040EA0C0093F0000F01F0004C02BF6B
:100EF800490011F4000F013BF9D041EA0C018FE7DA
:100F08000CEAD15392EA0C0F18BF93EA0C0F0AD0DF
:100F180030F0004C18BF31F0004CD8D180EA010005
:100F280000F00040704790F0000F17BF90F0004F9E
:100F3800084691F0000F91F0004F14D092EA0C0F80
:100F480001D142020FD193EA0C0F03D14B0218BF13
:100F5800084608D180EA010000F0004040F0FE4059
:100F680040F40000704740F0FE4040F440007047F5
:100F78004FF0FF0C1CEAD0521EBF1CEAD15392EA74
:100F88000C0F93EA0C0F69D0A2EB030280EA010C64
:100F980049024FEA402037D04FF0805343EA1111FD
:100FA80043EA10130CF000408B4238BF5B0042F15B
:100FB8007D024FF4000C8B4224BF5B1A40EA0C0000
:100FC800B3EB510F24BFA3EB510340EA5C00B3EB32
:100FD800910F24BFA3EB910340EA9C00B3EBD10F20
:100FE80024BFA3EBD10340EADC001B0118BF5FEA72
:100FF8001C1CE0D1FD2A3FF650AF8B4240EBC2509B
:1010080008BF20F0010070470CF0004C4CEA50205B
:101018007F32C2BFD2F1FF0340EAC250704740F4AA
:1010280000004FF00003013A37E792F0000F00F09C
:10103800004C02BF400010F4000F013AF9D040EA1A
:101048000C0093F0000F01F0004C02BF490011F4AE
:10105800000F013BF9D041EA0C0195E70CEAD153A6
:1010680092EA0C0F08D142027FF47DAF93EA0C0F8D
:101078007FF470AF084676E793EA0C0F04D14B0271
:101088003FF44CAF08466EE730F0004C18BF31F023
:10109800004CCAD130F000427FF45CAF31F000431D
:1010A8007FF43CAF5FE700BF4FF0FF3C06E000BFB6
:1010B8004FF0010C02E000BF4FF0010C4DF804CDD9
:1010C8004FEA40024FEA41037FEA226C18BF7FEAE9
:1010D800236C11D001B052EA530C18BF90EA010FEB
:1010E80058BFB2EB030088BFC81738BF6FEAE1707A
:1010F80018BF40F0010070477FEA226C02D15FEA16
:10110800402C05D17FEA236CE4D15FEA412CE1D081
:101118005DF8040B704700BF844608466146FFE748
:101128000FB5FFF7C9FF002848BF10F1000F0FBD2A
:101138004DF808EDFFF7F4FF0CBF012000205DF823
:1011480008FB00BF4DF808EDFFF7EAFF34BF0120A8
:1011580000205DF808FB00BF4DF808EDFFF7E0FF41
:1011680094BF012000205DF808FB00BF4DF808ED92
:10117800FFF7D2FF94BF012000205DF808FB00BFF5
:101188004DF808EDFFF7C8FF34BF012000205DF8D7
:1011980008FB00BF42000ED2B2F1FE4F0BD34FF056
:1011A8009E03B3EB126209D44FEA002343F00043D5
:1011B80023FA02F070474FF00000704712F1610FF8
:1011C80001D1420202D14FF0FF3070474FF00000CA
:1011D800704700BF53B94AB9002908BF00281CBF8F
:1011E8004FF0FF314FF0FF3000F074B9ADF1080C4B
:1011F8006DE904CE00F006F8DDF804E0DDE902232D
:1012080004B070472DE9F047089E0D46044688460D
:10121800002B4DD18A42944668D9B2FA82F252B173
:1012280001FA02F3C2F1200120FA01F10CFA02FCE2
:1012380041EA030894404FEA1C45210CB8FBF5FE2F
:101248001FFA8CF705FB1E8341EA03430EFB07F1E7
:1012580099420BD91CEB03030EF1FF3080F01E817D
:10126800994240F21B81AEF1020E63445B1AA4B2AC
:10127800B3FBF5F005FB103344EA034400FB07F722
:10128800A7420AD91CEB040400F1FF3380F008815F
:10129800A74240F2058164440238E41B40EA0E404C
:1012A80000211EB1D4400023C6E90043BDE8F08701
:1012B8008B4208D9002E00F0EE800021C6E9000517
:1012C8000846BDE8F087B3FA83F100294AD1AB425A
:1012D80002D3824200F2F980841A65EB03030120ED
:1012E8009846002EE2D0C6E90048DFE702B9FFDEE3
:1012F800B2FA82F2002A40F09180A1EB0C054FEA85
:101308001C471FFA8CFE0121B5FBF7F307FB1350AE
:10131800250C45EA00450EFB03F0A84208D91CEB52
:10132800050503F1FF3802D2A84200F2CB804346FC
:101338002D1AA4B2B5FBF7F007FB105544EA054493
:101348000EFB00FEA64508D91CEB040400F1FF358E
:1013580002D2A64500F2BB802846A4EB0E0440EA60
:1013680003409EE7C1F120078B4022FA07FC4CEAB4
:10137800030C20FA07F405FA01F31C43FD404FEA79
:101388001C4900FA01F3B5FBF9F8200C1FFA8CFE92
:1013980009FB185540EA054508FB0EF0A84202FA79
:1013A80001F20BD91CEB050508F1FF3A80F08880A3
:1013B800A84240F28580A8F1020865442D1AA4B21B
:1013C800B5FBF9F009FB105544EA054500FB0EFE94
:1013D800AE4508D91CEB050500F1FF346CD2AE45CB
:1013E8006AD90238654440EA0840A0FB0294A5EB9C
:1013F8000E05A542C846A64656D353D05EB1B3EBF8
:10140800080265EB0E0505FA07F722FA01F3CD404D
:101418001F43C6E900750021BDE8F087C2F120032B
:1014280020FA03F10CFA02FC25FA03F395400D4368
:101438004FEA1C471FFA8CFEB3FBF7F107FB11308C
:101448002B0C43EA004301FB0EF0984204FA02F425
:1014580008D91CEB030301F1FF382FD298422DD98C
:10146800023963441B1AADB2B3FBF7F007FB103324
:1014780045EA034500FB0EF3AB4208D91CEB050512
:1014880000F1FF3816D2AB4214D902386544ED1A80
:1014980040EA014138E73146304607E78646E5E647
:1014A8001846FAE64B45A9D2B9EB020864EB0C0ED4
:1014B8000138A3E74046EAE7204694E74146D1E7EA
:1014C800D0467BE7023B654432E7084609E76444B7
:1014D800023842E7704700BF4FEA410C7FEA6C5C74
:1014E80002D150EA013C0AD14FEA430C7FEA6C5C16
:1014F80002D152EA033C02D14FF0000070474FF08E
:1015080001007047000000002DE9F04F83B0064647
:101518000D46174600212846FFF70AFE002840F02E
:10152800B38029462846FFF76FFC0446314630460B
:10153800FFF76AFC01462046FFF75EFB00F0D2FC8D
:10154800B14B1968FFF714FD04462846FEF7C4FF9F
:10155800804689463046FEF7BFFF42464B4607F0B5
:1015680091FC804689463846FEF7B6FF42464B4610
:10157800FEF754FEFFF7EAFA00F086FC054620461F
:10158800FEF7AAFF96A3D3E90023FFF78DFA00B16F
:101598009E4C2046FEF7A0FF93A3D3E90023FFF754
:1015A80065FA00B19A4C2846FEF796FF06460F46A4
:1015B8008FA3D3E90023FFF711F90022954BFEF71B
:1015C8002DFEFFF7A3FA8146FEF764FF82468B469D
:1015D80087A3D3E90023FEF7D7FF32463B46FEF741
:1015E8001BFEFFF7B3FA00F057FBFEF775FF82A367
:1015F800D3E90023FEF7C8FFCDE900012046FEF736
:101608006BFF04460D4602460B46DDE90001FEF776
:10161800BBFFFFF79BFA804600227E4B5046594697
:10162800FEF7FAFD72A3D3E90023FEF7ADFF0246E9
:101638000B4630463946FEF7EFFDFFF787FA00F014
:101648002BFBFEF749FF6CA3D3E90023FEF79CFFB1
:1016580002460B4620462946FEF796FFFFF776FA24
:10166800044641464FF07E50FFF7C4FA2146FFF783
:10167800C1FA054609F1FF33052B00F2AA80DFE81D
:1016880003F01746596C7F925F4B19683046FFF795
:101698006FFC04463846FEF71FFF59A3D3E9002321
:1016A800FEF7BCFDFFF752FA00F0EEFB054666E7D1
:1016B80021464046FFF7A0FA07464FF07C512846DE
:1016C800FFF7A2FB064601463846FFF795FA05469E
:1016D80021463046FFF790FA07464F492846FFF75C
:1016E80093FB4E4B1C68FFF755FD60634A4938462B
:1016F800FFF78AFBFFF74EFDA06347493046FFF727
:1017080083FBFFF747FDE06303B0BDE8F08F4FF0C0
:101718007C51FFF779FB06464146FFF76DFA05460F
:1017280021464046FFF768FA01463046FFF764FA5B
:101738000746D2E74FF07C51FFF766FB0546214686
:101748004046FFF759FA2946FFF756FA0746294651
:101758002046FFF751FA0646BFE74FF07C51FFF7E6
:1017680053FB054601464046FFF746FA0746214621
:101778004046FFF741FA2946FFF73EFA0646ACE72E
:101788004FF07C51FFF740FB07462146FFF734FA3C
:10179800054621464046FFF72FFA01463846FFF72F
:1017A8002BFA064699E721464046FFF725FA0446F4
:1017B8004FF07C512846FFF727FB07460146204695
:1017C800FFF71AFA054641463846FFF715FA064666
:1017D80083E70026374635467FE700BFAFF3008032
:1017E800105839B4C876E23F105839B4C876E2BF09
:1017F80040AF2D3852C1F03F6B6058E87AB6FB3FD6
:10180800F4D64354FB21F93FE005002046B6133FC8
:1018180046B613BF0000F03F0000F044E807002080
:1018280070B505464FF0E0239E692B4B1868B0420F
:101838001ED9801BFFF790FA2849FFF799FBFEF79E
:101848004BFE23A3D3E90023FEF79EFEFFF77EF9A4
:101858000446214B1E6000212046FFF769FCE0B9D1
:101868004FF07C512046FFF78BFCB8B11C4C15E0BB
:10187800801B00F1FF1000F57F40FFF76DFA174954
:10188800FFF776FBFEF728FE11A3D3E90023FEF746
:101898007BFEFFF75BF90446DBE7114C294620463F
:1018A800FFF7B2FA0F4C2168FFF7A6F900F0ECFA3F
:1018B80020600D4B1C680D4B196800F009FB0246AF
:1018C80000212046FFF720FE204670BDAFF30080C0
:1018D8008DEDB5A0F7C6B03ED00500200000104140
:1018E8006F12833AE8050020DC050020D4050020AB
:1018F8002DE9F84306464FF0E0239D69404B1868F0
:10190800A8421ED9401BFFF727FA3E49FFF730FBD4
:10191800FEF7E2FD38A3D3E90023FEF735FEFFF713
:1019280015F90446364B1D6000212046FFF700FCE0
:10193800E0B94FF07C512046FFF722FCB8B1324C99
:1019480015E0401B00F1FF1000F57F40FFF704FA97
:101958002C49FFF70DFBFEF7BFFD27A3D3E90023B2
:10196800FEF712FEFFF7F2F80446DBE7264C274B9A
:101978001F6839463046FFF73DF9054620F0004913
:10198800234BD3F8008021464046FFF73DFA014635
:101998004846FFF7F5FB58B300212846FFF7D2FB6E
:1019A80038B900212846FFF7EBFBF8B14FF07E511C
:1019B80000E018494046FFF727FA2146FFF724FAC6
:1019C80001463846FFF718F9104B1860124B1C688F
:1019D800124B19680D4B186800F07AFA024600217C
:1019E8002046FFF791FD2046BDE8F8830021E1E796
:1019F800064B1E60EAE700BF8DEDB5A0F7C6B03E06
:101A0800D0050020000010416F12833AE80500203D
:101A1800D8050020000080BFDC050020D405002088
:101A280008B50C4B1B78032B02D0042B09D008BD3A
:101A3800094B1860FFF7F4FE084B586000221A6043
:101A4800F5E7074B1860FFF753FF044B5860002277
:101A58001A60ECE7E4050020F0050020F4050020FA
:101A6800EC05002010B58CB0002409940A940B945E
:101A78002022214601A807F0E5F820484FF0A043AE
:101A880003604FF4003343608460C46004614461C0
:101A980004238361047744770123036280F8244098
:101AA800C462046380F83840C46380F8404000F0A2
:101AB800D3FDC8B90023099309A9104801F05EF9BC
:101AC800A8B90F4B019306230293002303937F22A7
:101AD80004920422059206930DEB0201074800F0D8
:101AE800DBFE38B90CB010BD00F0E6FAE2E700F012
:101AF800E3FAE6E700F0E0FAF4E700BF00060020AA
:101B08001000C01000B589B020220021684607F0F7
:101B180099F81B481B4B03604FF4003343600023C4
:101B28008360C36003614361042282610377437762
:101B38000122026280F82430C362036380F83830DF
:101B4800C36380F8403000F087FD90B90E4B0093D6
:101B580006230193002302937F2203920422049216
:101B680005936946064800F097FE28B909B05DF864
:101B780004FB00F0A1FAE9E700F09EFAF6E700BFDF
:101B88006C060020000100500200300410B59AB025
:101B98000446002115911691179118911991442224
:101BA80004A807F04FF82368B3F1A04F04D0364AD1
:101BB800934235D01AB010BD4FF4004304934FF050
:101BC8000053139304A803F081F8D8B92F4A136877
:101BD80001331360012B18D02D4BDA6C42F001024F
:101BE800DA64DB6C03F001030193019B082315936E
:101BF800032316930023179315A94FF0904001F083
:101C080029FAD7E700F058FAE0E7214BDA6C42F4FA
:101C18000052DA64DB6C03F400530093009BDBE7AB
:101C28004FF4004304934FF00053139304A803F0B8
:101C38004DF8D8B9154A136801331360012B18D031
:101C4800134BDA6C42F00102DA64DB6C03F0010337
:101C58000393039B012315930323169300231793E0
:101C680015A94FF0904001F0F5F9A3E700F024FA28
:101C7800E0E7074BDA6C42F40052DA64DB6C03F4F9
:101C880000530293029BDBE700010050FC05002093
:101C9800001002400000000038B5FEF71DFC0446A5
:101CA8000D466BA3D3E90023FEF7E0FE002838D1E8
:101CB80069A3D3E9002320462946FEF7D7FE00286A
:101CC8005BD167A3D3E9002320462946FEF7CEFE61
:101CD800002800F08D8064A3D3E90023204629461C
:101CE800FEF752FC04460D4600220023FEF7D2FE02
:101CF800002872D00022624B20462946FEF78EFA51
:101D0800FEF7DCFEA0F5C7705E4B53F82000FEF727
:101D1800D1FB57A3D3E90023FEF736FCFEF716FFE5
:101D280021E051A3D3E9002320462946FEF72CFCE5
:101D380004460D4600220023FEF7ACFEA0B10022A7
:101D48004F4B20462946FEF769FAFEF7B7FE4D4B82
:101D580053F82000FEF7AEFB47A3D3E90023FEF7B4
:101D680013FCFEF7F3FE38BD0022454B20462946FA
:101D7800FEF752FAFEF7A2FEE9E73BA3D3E90023F8
:101D880020462946FEF700FC04460D4600220023A3
:101D9800FEF780FEB0B10022394B20462946FEF7F7
:101DA8003DFAFEF78BFEC0F5C770364B53F820009E
:101DB800FEF780FB30A3D3E90023FEF7E5FBFEF72F
:101DC800C5FED0E700222E4B20462946FEF724FA0E
:101DD800FEF774FEC0F5C770E7E70022284B2046DF
:101DE8002946FEF719FAFEF769FEA0F5C7708BE7DA
:101DF8001DA3D3E9002320462946FEF7C5FB044668
:101E08000D4600220023FEF745FEB0B100221C4B10
:101E180020462946FEF702FAFEF750FEC0F5477045
:101E2800184B53F82000FEF745FB11A3D3E9002314
:101E3800FEF7AAFBFEF78AFE95E70022104B204624
:101E48002946FEF7E9F9FEF739FEC0F54770E7E7DE
:101E5800F4D64354FB21F93FEA2E4454FB210940B0
:101E6800320D337F7CD912409CA223B9FCAB5F4072
:101E78002D431CEBE2361ABF2D431CEBE2361A3F0A
:101E88000000E03F6096000810B5FEF725FB0EA3A2
:101E9800D3E9002306F0F8FFFEF758FE04460021B8
:101EA800FFF764F908B1204610BD2046FEF714FB81
:101EB80005A3D3E90023FEF7B1F9FEF747FE044670
:101EC800F1E700BFAFF30080EA2E4454FB2119402C
:101ED80010B504460846FEF743FF2146FEF794FF77
:101EE80010BD000008B501460248A0EB6100FEF7EE
:101EF8008BFF08BD865A375F2DE9F0418AB0002470
:101F080005940694079408940994254BDA6C42F0DA
:101F18000402DA64DA6C02F004020192019ADA6CC3
:101F280042F02002DA64DA6C02F020020292029A8D
:101F3800DA6C42F00102DA64DA6C02F00102039210
:101F4800039ADA6C42F00202DA64DB6C03F00203F3
:101F58000493049BDFF84C8022464FF4005140461E
:101F680001F066F9104D22464FF40051284601F061
:101F78005FF94FF4005705970126069607940894D1
:101F880005A9404601F066F8059706960794089457
:101F980005A9284601F05EF80AB0BDE8F08100BF47
:101FA80000100240000800480004004808B5124824
:101FB800124B0360124B4360002383600122C2600E
:101FC800036143618361C361036201F036F950B96B
:101FD8000021094801F08FF940B90021064801F0B5
:101FE800B8F930B908BD00F067F8F1E700F064F817
:101FF800F3E700F061F8F5E7D80600200054004048
:102008005D3E3020F0B59BB0044600211591169135
:10201800179118911991442204A806F013FE22681A
:10202800224B9A4201D01BB0F0BD4023049304A870
:1020380002F04CFE002836D11D4CE36C43F001033E
:10204800E364E36C03F001030193019BE36C43F049
:102058000203E364E36C03F002030293029B4FF470
:1020680000431593122716970025179518950426EF
:10207800199615A94FF0904000F0ECFF4FF400734B
:102088001593169717951895199615A9094800F0EC
:10209800E1FFA36D43F40013A365A36D03F40013DC
:1020A8000393039BBFE700F007F8C5E7005400401F
:1020B800001002400004004872B6FEE700B595B073
:1020C8003822002106A806F0BDFD002301930293E3
:1020D8000393049305934FF4007002F05FF9012213
:1020E80006924FF48033079302230D9303210E9138
:1020F8000F920C22109211931293139306A802F0D8
:1021080007FA78B90F23019303230293002303935B
:1021180004930593012101A802F0B2FC20B915B07F
:102128005DF804FBFFF7C8FFFFF7C6FF10B500F026
:1021380071FAFFF7C3FFFFF7DFFEFFF793FCFFF726
:1021480035FFFFF7DFFC00F0FFF800F091F906F02B
:10215800E3FA01221449154804F00AFC01224FF45D
:102168000051134801F064F8124C0021204603F096
:10217800EDFA0421204603F0E9FA0821204603F08D
:10218800E5FA0D4B0D4A1A600D4B0E4A1A600E4BBC
:102198000E4A1A600E4B03221A700E4B0C221A605C
:1021A8000D48FFF73DFCFBE76807002034080020D6
:1021B80000040048E8070020E00500200000404136
:1021C800DC050020CDCCDC40D80500200000C8424A
:1021D800E4050020D40500200000204100B583B0AC
:1021E8000B4B1A6E42F001021A661A6E02F00102D7
:1021F8000092009A9A6D42F080529A659B6D03F0A6
:1022080080530193019B02F04FF903B05DF804FB82
:1022180000100240FEE7FEE7FEE7FEE7FEE7704734
:102228007047704708B500F005FA08BD08B50248C0
:1022380001F071FE08BD00BF9C15002010B51248C2
:1022480003F024FC114A1178114B1B7811484354B0
:102258000131C9B21170652B05D001220C490A4819
:1022680004F086FB10BD044606F0A8FA21460A4889
:1022780006F03AFD40220021204606F0E3FC034B1D
:1022880000221A70E9E700BF340800206407002024
:1022980068070020A80700202407002070470000D6
:1022A8000268094B9A4200D0704782B003F5644334
:1022B8001A6E42F400621A661B6E03F400630193FF
:1022C800019B02B0704700BF002C014030B589B0B7
:1022D8000023039304930593069307930268184B0E
:1022E8009A4201D009B030BD03F56443DA6C42F07C
:1022F8000102DA64DA6C02F001020192019ADA6CE6
:1023080042F00202DA64DB6C03F002030293029BE0
:102318004FF4F0630393022504950624079403A958
:102328004FF0904000F096FE03230393049500239A
:1023380005930693079403A9024800F08BFED1E7A2
:10234800002C01400004004810B59CB000241894EB
:1023580019941A941B941594169417940E940F9428
:10236800109411941294139414943422214601A8C1
:1023780006F068FC3C483D4B0360446084604FF4C1
:10238800F063C36004614461846102F0E3FF0028E4
:1023980051D14FF48053189318A9334803F02AF900
:1023A80000284BD1304803F005F8002849D1002314
:1023B80015931693179315A92B4803F073FA002861
:1023C80042D160230E9340F2E7330F93002210921C
:1023D80011921292139214920EA9234803F060F8F6
:1023E800002834D104220EA91F4803F059F8002808
:1023F80030D108220EA91C4803F052F868BB00230C
:10240800019302930393049305934FF400520692A9
:102418000793089309934FF000720A920B930C9359
:102428000D9301A9104803F087FAC8B90E48FFF7C1
:102438004DFF1CB010BDFFF73FFEAAE7FFF73CFEBB
:10244800B0E7FFF739FEB2E7FFF736FEB9E7FFF767
:1024580033FEC7E7FFF730FECBE7FFF72DFECEE7E9
:10246800FFF72AFEE2E700BFE8070020002C014042
:1024780008B51748174B03604FF4E1334360002356
:102488008360C36003610C2242618361C36103629C
:102498004362836204F095F970B900210C4804F096
:1024A800DDFA60B900210A4804F0FDFA50B908487D
:1024B80004F0B5FA48B908BDFFF7FEFDEDE7FFF7F0
:1024C800FBFDEFE7FFF7F8FDF1E7FFF7F5FDF2E7B2
:1024D800340800200048004010B598B00446002198
:1024E80013911491159116911791442202A806F0A0
:1024F800A9FB22681B4B9A4201D018B010BD0423D7
:10250800029302A802F0E2FB48BB174B9A6D42F413
:1025180080229A659A6D02F480220092009ADA6C01
:1025280042F00202DA64DB6C03F002030193019BC0
:102538004FF44063139302231493002415941694C4
:102548000723179313A9094800F084FD2246214662
:10255800272000F0AFFC272000F0E4FCCDE7FFF7D0
:10256800ABFDD2E7004800400010024000040048DC
:102578000D4885460D480E490E4A002302E0D458FE
:10258800C4500433C4188C42F9D30B4A0B4C0023B3
:1025980001E013600432A242FBD3FFF77FFE06F08E
:1025A8002DFBFFF7C3FDFEE70080002000000020A0
:1025B800B4050020A49A0008B4050020B41A00202D
:1025C800FEE70000104B1B680BB90120704710B5DF
:1025D80004464FF47A70B0FBF3F30C4A1068B0FB72
:1025E800F3F000F0ADFC68B90F2C01D901200AE026
:1025F800002221464FF0FF3000F05CFC044B1C60C9
:10260800002000E0012010BD040000200000002090
:102618000800002010B5032000F03AFC0F20FFF757
:10262800D1FF10B10124204610BD0446FFF7D6FDA6
:10263800F9E70000034A1368034909680B4413606B
:10264800704700BFC408002004000020014B186830
:10265800704700BFC408002030B583B00023019341
:10266800002800F00D810446C36D13B323689A68EF
:1026780012F0005F05D09A6822F0204222F03F0253
:102688009A602268936813F0805F1FD1936823F0E3
:10269800104323F03F0343F080539360794B1B684A
:1026A8009B09794AA2FB03239B0901335B00019331
:1026B80009E0FFF76BFA0023236684F85830D5E762
:1026C800019B013B0193019B002BF9D12268936880
:1026D80013F0805F40F09C80E36D43F01003E365E6
:1026E800236E43F0010323660120936813F004036B
:1026F80000D00123E16D11F0100F40F0BA80002BDB
:1027080040F0B780E36D23F4817343F00203E3657F
:10271800936813F0010F15D14FF0A0439B6813F095
:10272800010300D00123594A926812F0010200D037
:102738000122134306D1636855498A6822F47C1242
:1027480013438B60627FE36B43EA4233E2681343CF
:10275800A268134394F8242043EA0243012A59D07B
:10276800E26A22B102F47872216B0A4313432168AA
:10277800CD68484A2A401343CB602268136923F086
:102788004063616B0B43136121688B6813F004038A
:1027980000D001238A6812F0080200D0012243BB4E
:1027A8003ABB227F94F838305B0043EA8232CB6828
:1027B80023F4804323F002031343CB60236973B3EC
:1027C8002268136943F4803313612268D2F8C03059
:1027D80023F47F5323F03F0321690B43C2F8C03031
:1027E80094F84030012B29D02268136923F00103A3
:1027F80013616369012B33D02268136B23F00F0335
:102808001363E36D23F0030343F00103E36535E04D
:1028180000206AE7A26A013A43EA4243A0E7226835
:10282800136923F4803313612268D2F8C03023F48B
:102838007F5323F03F03C2F8C030D1E721680B690A
:1028480023F4FF6323F00403626CA56C2A43E56C50
:102858002A43256D2A43134343F001030B61C8E75C
:1028680021680B6B23F00F03226A013A13430B63B1
:10287800C7E7E36D43F01003E365012003B030BD03
:102888000120FBE700000020632D3E0500010050F9
:10289800000300500740F0FFF0B583B0002201921A
:1028A80090F85820012A00F05E820346012280F841
:1028B80058200568A86810F0040F09D0DA6D42F0B6
:1028C8002002DA650120002283F8582003B0F0BD09
:1028D8004C683035220A920002F00C02A85804F025
:1028E8001F0E1F2404FA0EF420EA04000C68C4F337
:1028F800846C0CFA0EFC40EA0C00A8501868826838
:1029080012F0040200D00122846814F0080400D0F8
:102918000124002A4FD1002C4DD18D68B5F1004F0C
:102928007CD00F6814307A0E920002F004028658A8
:10293800C7F3045E4FF0070C0CFA0EFC26EA0C0CE9
:1029480005FA0EF54CEA050585501868426922F02B
:10295800004242614D691868C268C2F3C102520060
:1029680005FA02F20E69042E70D0603050F8267015
:10297800A94D3D400F6807F0F8473A43154345F025
:10298800004540F826501A680E698869603252F886
:10299800265025F08075284342F826001A680D69EC
:1029A800087F01284FD0603252F8250020F00070CF
:1029B800044342F825401A68906810F0010F12D1BC
:1029C8000868CD68954CA54200F0A780D2F8B040C1
:1029D800C0F3120024EA0000C2F8B000C8688F4AA9
:1029E800904200F0A2800A688D490A4200F0B38143
:1029F8008C49896801F0E0708B4CA24200F062813A
:102A08008A4CA24200F05E81894CA24200F080818B
:102A1800884CA24200F08E81002054E70D681430E3
:102A28006A0E920002F004028658C5F3045507277F
:102A380007FA05F526EA050585501868426942F047
:102A48000042426186E74FF00074ACE7026E046E04
:102A5800C4F384640A68C2F312057DBBC2F38462BE
:102A6800944233D01C68626E606EC0F384600A685A
:102A7800C2F312057DBBC2F38462904233D01C6856
:102A8800A26EA06EC0F384600A68C2F312057DBB13
:102A9800C2F38462904233D01C68E26EE06EC0F3E9
:102AA80084600A68C2F312057DBBC2F38462904257
:102AB80081D1E26E22F00042E2667CE792FAA2F24D
:102AC80012B1B2FA82F2CBE72022C9E7026E22F0F5
:102AD80000420266C6E792FAA2F212B1B2FA82F294
:102AE800CBE72022C9E7626E22F000426266C6E7A1
:102AF80092FAA2F212B1B2FA82F2CBE72022C9E727
:102B0800A26E22F00042A266C6E792FAA2F212B1C1
:102B1800B2FA82F2CBE72022C9E7D2F8B040C0F37C
:102B280012002043C2F8B00058E71C680A68C2F3D4
:102B38001205002D38D1900E013000F01F00092831
:102B48008CBF00200120002876D0002D3BD1900EAC
:102B58000130800600F0F840002D40D1960E013675
:102B680006F01F070126BE403043002D45D1920EC6
:102B7800013202F01F0202EB42021205024388688A
:102B880004F11406550EAD0005F004057459C2F39E
:102B980004524FF0070C0CFA02FC24EA0C0C90408B
:102BA8004CEA000070511EE792FAA2F048B1B0FA60
:102BB80080F0013000F01F0009288CBF00200120A0
:102BC800C1E72020F5E792FAA2F030B1B0FA80F020
:102BD8000130800600F0F840BEE72020F8E792FABE
:102BE800A2F646B1B6FA86F6013606F01F060127A8
:102BF80007FA06F6B8E72026F6E792FAA2F242B1FB
:102C0800B2FA82F2013202F01F0202EB420212050E
:102C1800B4E72022F6E700BF00F0FF0300007F4082
:102C28000000088000030050000021C31000C0907D
:102C3800000052C7000084CBCDB9900E0130800649
:102C480000F0F840FDB9960E013606F01F07012680
:102C5800BE4030432DBB920E013202F01F0202EB40
:102C680042021E3A120542F00072024387E792FAC6
:102C7800A2F030B1B0FA80F00130800600F0F840E0
:102C8800E0E72020F8E792FAA2F646B1B6FA86F60F
:102C9800013606F01F06012707FA06F6D9E72026AF
:102CA800F6E792FAA2F25AB1B2FA82F2013202F0CF
:102CB8001F0202EB42021E3A120542F00072D4E7EC
:102CC8002022F3E711F4000F7FF49EAE1A68B2F1E8
:102CD800A04F01D00020F6E540F4000023498A689F
:102CE80022F0E07210438860214A12689209214953
:102CF800A1FB02129209013202EB420292000192F8
:102D0800019A1AB1019A013A0192F9E70020DAE52D
:102D180011F0807F7FF47CAE1968174A91421CD06D
:102D280040F0807011498A6822F0E0721043886090
:102D38000020C8E511F4800F11D119680E4A91429C
:102D48000FD040F480020948816821F0E0710A43FD
:102D580082600020B7E50020B5E50020B3E500203B
:102D6800B1E50020AFE50220B0E500BF0003005048
:102D780000000020632D3E050001005090F8582007
:102D8800012A7ED010B49DB00346012280F8582055
:102D98000022189219920068B0F1A04F39D0002291
:102DA8000192019A002A37D0926812F0040200D0EA
:102DB8000122806810F0040F54D1002A52D10A6809
:102DC800002A32D0304CA26822F46042486893F856
:102DD80038C040EA4C300243A2604FF0A0429268EB
:102DE80012F0010200D001222848806810F001008A
:102DF80000D00120024340D1234CA26822F4716222
:102E080022F00F020868896801430A43A260002083
:102E18002DE01E4A0192C4E7DA6D42F02002DA651D
:102E2800002283F85820012024E017498A6822F4F8
:102E380060428A604FF0A042926812F0010200D00E
:102E480001221249896811F0010100D001210A43C9
:102E580015D10D498A6822F4716222F00F028A6046
:102E6800002004E0DA6D42F02002DA650120002239
:102E780083F858201DB010BC70470020F7E70020E9
:102E8800F5E70220704700BF000300500001005022
:102E9800074AD36823F4E0631B041B0C000200F408
:102EA800E060034343F0BF6343F40033D3607047EB
:102EB80000ED00E000B5194BDB68C3F30223C3F152
:102EC800070CBCF1040F28BF4FF0040C03F1040EEB
:102ED800BEF1060F18D9033B4FF0FF3E0EFA0CFC6B
:102EE80021EA0C0199400EFA03F322EA030319437D
:102EF80000280BDB0901C9B200F1604000F5614010
:102F080080F800135DF804FB0023E5E700F00F00EC
:102F18000901C9B2024B1954F4E700BF00ED00E003
:102F280014ED00E0002807DB00F01F024009012330
:102F38009340024A42F82030704700BF00E100E0A9
:102F48000138B0F1807F0BD24FF0E0235861054A79
:102F5800F02182F823100020986107221A61704737
:102F68000120704700ED00E0034690F82520D2B21A
:102F7800022A09D00422C2630120012283F82520F5
:102F8800002283F82420704701680A6822F00E02A4
:102F98000A60816C0A6822F480720A6001680A6813
:102FA80022F001020A60426C02F01F01006C01224B
:102FB8008A404260DA6C196D51605A6D42B11168ED
:102FC80021F4807111609A6DD96D51600020D4E7A9
:102FD8000020D2E708B590F82530DBB2022B09D0E3
:102FE8000423C363012380F82530002280F82420BD
:102FF800184608BD0268136823F00E0313600268C0
:10300800136823F001031360826C136823F4807340
:103018001360436C03F01F02016C012393404B6063
:10302800C36C026D5A60436D33B11A6822F4807222
:103038001A60836DC26D5A60012380F82530002321
:1030480080F82430836B13B198470020D1E7002023
:10305800CFE7000070B582B0002365E085685E00A8
:103068000324B44025EA0405CC68B4402C438460AA
:10307800446824EA0C0C4C68C4F300149C4044EAED
:103088000C04446061E0DD08083550F8256003F061
:1030980007044FEA840C0F2404FA0CF426EA040E01
:1030A8000C6904FA0CF444EA0E0440F8254063E085
:1030B800052400E0002404FA0EF42C430CF1020C61
:1030C800574D45F82C40574CA568D44325EA0206CD
:1030D800D1F804C01CF4801F01D042EA0506514D06
:1030E800AE60ED6804EA0506D1F804C01CF4001FC0
:1030F80001D042EA05064B4DEE606D6804EA05060C
:10310800D1F804C01CF4003F01D042EA0506454D41
:103118006E602D682C404E6816F4803F01D042EA5C
:103128000504404A146001330A6832FA03F474D083
:103138004FF0010C0CFA03FC1CEA0202F3D04C68B5
:1031480004F00304013C012C88D94C6804F0030402
:10315800032C0CD0C4685D004FF0030C0CFA05FC7E
:1031680024EA0C0C8C68AC4044EA0C04C4604C683B
:1031780004F00304022C86D004684FEA430E4FF093
:10318800030C0CFA0EFC24EA0C0C4C6804F0030443
:1031980004FA0EF444EA0C0404604C6814F4403F4A
:1031A800C1D0214C256E45F001052566246E04F03A
:1031B80001040194019C4FEA930C0CF10205184C90
:1031C80054F8255003F003044FEA840E0F2404FA40
:1031D8000EF425EA0405B0F1904F3FF46BAF134CA1
:1031E800A04212D004F58064A04210D004F5806497
:1031F800A0420ED004F58064A0420CD004F580648F
:10320800A0423FF455AF062455E7012453E70224B2
:1032180051E703244FE704244DE702B070BD00BF17
:103228000000014000040140001002400004004872
:103238000AB18161704781627047002859D010B582
:10324800044690F84130002B43D0242384F84130C1
:103258002268136823F0010313606368226823F06F
:10326800706313612268936823F400439360E368F2
:10327800012B33D0A368226843F404439360E368C6
:10328800022B31D02268536843F0007343F40043A3
:1032980053602268D36823F40043D36023696269CA
:1032A8001343A169226843EA0123D360E369216AD1
:1032B80022680B4313602268136843F0010313600C
:1032C80000206064202384F84130206384F84200A1
:1032D80010BD80F84030FEF795FEB6E7A368226877
:1032E80043F400439360CAE723684FF400625A60CE
:1032F800C8E70120704790F84130DBB2202B24D179
:1033080090F84030012B22D0012380F8403024234C
:1033180080F841300268136823F0010313600268E3
:10332800136823F48053136002681368194311600B
:103338000268136843F001031360202380F84130CA
:10334800002380F84030184670470220704702205A
:10335800704790F84130DBB2202B22D190F84030F2
:10336800012B20D0012380F84030242380F84130FD
:103378000268136823F0010313600268136823F4DA
:10338800706343EA012111600268136843F0010386
:103398001360202380F84130002380F8403018461D
:1033A8007047022070470220704738B512F4804FEA
:1033B80043D00468B4F8503091F800C04FEACC0EFE
:1033C8001EFA83F32344B3F80244C4F309048B6957
:1033D800A34228D31B1B8B618B697BB9056835F821
:1033E8002C309BB223F4804323F0700383F4005302
:1033F80043F4004343F0800325F82C3012F0400FCB
:103408000ED002680D7832F825309BB223F4E043E1
:1034180023F0700343F4004343F0C00322F825303F
:1034280024B9204638BD00238B61D5E723460A8995
:103438004969006804F086FAF3E70468B4F8503084
:1034480091F800C04FEACC0E1EFA83F32344B3F878
:103458000644C4F309048B69A3422FD31B1B8B6159
:103468008B697BB9056835F82C309BB223F480430F
:1034780023F0700383F4005343F4004343F08003C4
:1034880025F82C3012F0400F0FD1026891F800C0D7
:1034980032F82C309BB223F4E04323F0700343F45A
:1034A800004343F0C00322F82C30002CB9D0234647
:1034B8004A894969006804F045FAB2E700238B613C
:1034C800CEE700286DD030B587B0044690F8A93211
:1034D8003BB1032384F8A932206803F012FB0023D0
:1034E8001FE080F8A83205F027FAF2E75A1C02EB31
:1034F800820104EBC1010120487002EB820104F84B
:10350800313003EB830104EBC101CB8602EB820C63
:1035180004EBCC0C00208CF803008863C8630864B3
:10352800D3B260688342E1D3002316E003EB830241
:1035380004EBC202002182F8691182F8683182F82E
:103548006B11C2F87811C2F87C1103EB830204EB0B
:10355800C202C2F880110133DBB29842E6D8A44611
:103568005CF8105BEE46BCE80F00AEE80F00DCF834
:103578000030CEF80030231D0ECB284603F0CBFADE
:10358800002384F82430012384F8A932E369012B4D
:1035980002D0002007B030BD204600F0E8FE002031
:1035A800F8E70120704790F8A832012B0ED010B52B
:1035B8000446012380F8A832006803F099FA2068CD
:1035C80003F0EEFD002084F8A80210BD0220704729
:1035D80070B505460C46164612F0400F00F00981FA
:1035E8000268B2F850300978C80010FA83F313441F
:1035F800B3F80224C2F30902A369934251D99B1A72
:10360800A361A369002B68D16378002B4CD12A6889
:10361800B2F8503012FA83F30344B3F8022492B29A
:1036280022F4F84292B2A3F80224B3F802246FEA13
:1036380042426FEA524292B2A3F8022429686278A1
:10364800002A3DD1B1F8503011FA83F3227803EB08
:10365800C203B3F8062492B222F4F84292B2A3F855
:103668000624B3F806246FEA42426FEA524292B245
:10367800A3F806242178284605F0A4F916F4804F0B
:1036880040D02A68217832F821309BB223F4E043F5
:1036980023F0700343F4404343F0800322F82130C1
:1036A80030E00023A361ACE7012BC7D12A68B2F848
:1036B800503012FA83F303440022A3F80224BDE732
:1036C800012AD7D1B1F8503011FA83F3217803EBEE
:1036D800C1030022A3F80624CCE716F4804F0DD0CE
:1036E800286830F821309BB223F4E04323F07003BC
:1036F80043F4404343F0800320F8213094F8243009
:10370800012B12D02A68217832F821309BB223F499
:10371800E04323F0400383F0300343F4004343F0D5
:10372800800322F82130002070BD6369134463616F
:10373800E3691344E361216A236999421BD3C91AD7
:1037480021626278002A3FD12968B1F8502011FA25
:1037580082F2217802EBC1023E2B18D9590913F0E5
:103768001F0F00D101396FEAC1616FEA514189B277
:10377800A2F802142AE021B9002384F82430134661
:10378800DFE7002384F8243023620B46D9E78BB99E
:10379800B2F8021489B221F4F84189B2A2F80214ED
:1037A800B2F802146FEA41416FEA514189B2A2F8B6
:1037B80002140BE0590813F0010F00D001318902FF
:1037C80089B2A2F8021401E0012A06D09BB222892C
:1037D8006169286803F0F3FC94E72968B1F8502080
:1037E80011FA82F2217802EBC10299B2A2F802140E
:1037F800ECE70268B2F850300978C80010FA83F391
:103808001344B3F80624C2F30902A369934252D3BE
:103818009B1AA361A369002B69D16378002B4DD152
:103828002A68B2F8503012FA83F31844B0F8023418
:103838009BB223F4F8439BB2A0F80234B0F80234E8
:103848006FEA43436FEA53439BB2A0F802342968F6
:103858006278002A3ED1B1F8503011FA83F3227809
:1038680003EBC203B3F8062492B222F4F84292B2F0
:10387800A3F80624B3F806246FEA42426FEA5242DC
:1038880092B2A3F806242178284605F09BF816F48E
:10389800804F7FF437AF2A68217832F821309BB205
:1038A80023F4E04323F0700343F4404343F08003E0
:1038B80022F8213026E70023A361ABE7012BC6D10C
:1038C8002A68B2F8503012FA83F318440023A0F89B
:1038D8000234BCE7012AD6D1B1F8503011FA83F38B
:1038E800217803EBC1030022A3F80624CBE716F4E2
:1038F800804F0DD1286830F821309BB223F4E04383
:1039080023F0700343F4404343F0800320F8213050
:1039180094F82430012B7FF4F5AE63691344636196
:10392800E3691344E361216A236999421BD3C91AE5
:10393800216229686278002A3ED1B1F8502011FA34
:1039480082F2217802EBC1023E2B18D9590913F0F3
:103958001F0F00D101396FEAC1616FEA514189B285
:10396800A2F806142AE021B9002384F8243013466B
:10397800DFE70023236284F824300B46D9E78BB9AC
:10398800B2F8061489B221F4F84189B2A2F80614F3
:10399800B2F806146FEA41416FEA514189B2A2F8C0
:1039A80006140BE0590813F0010F00D00131890209
:1039B80089B2A2F8061401E0012A06D09BB26289F6
:1039C8006169286803F0FBFB9CE6B1F8502011FA06
:1039D80082F2217802EBC10299B2A2F80614EDE74F
:1039E8002DE9F0410546CAE003889BB223F4E14380
:1039F80023F070036FEA43436FEA53439BB203809B
:103A08002968B1F8503095F82820D20012FA83F3CB
:103A18000B44B3F80234C3F309036B64EA6B134431
:103A2800EB630021284604F0CDFF95F82430002BE5
:103A380000F0A5802B6C002B40F0A18095F8243075
:103A48002A6843F08003A2F84C30002385F824301C
:103A580095E0B0F8503095F86821D20012FA83F357
:103A68000344B3F80634C3F30903C5F88431B5F841
:103A78006E2105F52C7103F065FF2A68138823F081
:103A880070031B051B0D43F080031380284604F0C8
:103A980085FF74E089B9B3F8062492B222F4F8429B
:103AA80092B2A3F80624B3F806246FEA42426FEAFA
:103AB800524292B2A3F80624BFE04A0811F0010F5F
:103AC80000D00132920292B2A3F80624B5E030F891
:103AD80024309EB213F4004F40F0BE8016F0800FE1
:103AE8004DD0621C02EB820105EBC101286830F859
:103AF80024309BB223F4E14323F070036FEA43437D
:103B08006FEA53439BB220F82430CB78022B00F0A5
:103B1800A78104EB840305EBC30300221A6493F81E
:103B2800343023B316F0400F00F063814B78002B3C
:103B380040F04C812A68B2F8503012FA83F3621CC4
:103B480002EB820215F8322003EBC203B3F8022419
:103B580092B222F4F84292B2A3F80224B3F80224F3
:103B68006FEA42426FEA524292B2A3F80224013449
:103B780004EB840415F83410284604F023FF286861
:103B8800B0F8443013F4004F00F0AE81B0F8444070
:103B9800A3B214F00F049AD113F0100F3FF424AF1E
:103BA80003889AB213F4006F7FF453AF12F4004FF6
:103BB800E5D0038823F070031B051B0D43F0800339
:103BC80003802868B0F8503095F86821D20012FABE
:103BD80083F30344B3F80634C3F30903C5F8843107
:103BE8008BB1D5F87C1171B1B5F86E2103F0AAFE3E
:103BF800D5F88421D5F87C311344C5F87C310021EF
:103C0800284604F0D3FE2B681A8812F4006FB6D148
:103C1800B3F8502013FA82F3D5F878113E297FF6CD
:103C280039AF4A0911F01F0F00D1013A6FEAC26299
:103C38006FEA524292B2A3F806242A6813889BB20C
:103C480023F4804323F0700383F4405343F4004388
:103C580043F08003138092E730F8243023F0700398
:103C68001B051B0D43F0800320F8243004EB84016E
:103C7800C90001F5B47105EB010804EB840305EBF9
:103C8800C30393F87431002B40D12868B0F8503042
:103C980004EB840205EBC20292F86821D20012FA02
:103CA80083F30344B3F80674C7F3090717BB04EB9F
:103CB800840305EBC303D3F884213A44C3F8842171
:103CC800D3F87C213A44C3F87C21D3F880313BB146
:103CD80004EB840305EBC303D3F878319F4270D219
:103CE80004EB840305EBC30393F86811284604F03A
:103CF8005DFEF3E604EB840105EBC1013B46B1F838
:103D08006E21D1F87C1103F01DFED0E704EB84038B
:103D180005EBC30393F86B31022B33D0296804EB0E
:103D2800840205EBC20292F8680131F820309BB298
:103D380023F4E04323F0700343F4004343F0C0034B
:103D480021F82030286892F8683130F8232012F4DE
:103D5800804F1ED0B0F85020DB0013FA82F30344E2
:103D6800B3F80274C7F30907002FA0D004EB84014D
:103D780005EBC1013B46B1F87021D1F87C1103F085
:103D8800E1FD94E7324641462846FFF70EFB074619
:103D98008DE7B0F85020DB0013FA82F30344B3F840
:103DA8000674C7F30907002F81D004EB840105EBE3
:103DB800C1013B46B1F87221D1F87C1103F0C2FD74
:103DC80075E74146286803F00DFA87E6012B7FF472
:103DD800CEAE2A68B2F8503012FA83F3621C02EBB6
:103DE800820215F8322003EBC2030022A3F8022452
:103DF800BDE62968631C03EB830305EBC3035A780C
:103E0800E2B9B1F8503011FA83F3621C02EB820276
:103E180015F8322003EBC203B3F8062492B222F459
:103E2800F84292B2A3F80624B3F806246FEA424295
:103E38006FEA524292B2A3F8062498E6012A7FF468
:103E480096AEB1F8503011FA83F3621C02EB82028D
:103E580015F8322003EBC2030022A3F8062486E6F5
:103E680016F4807F3BD12868B0F85030621C02EB12
:103E7800820215F83260F20012FA83F30344B3F8B1
:103E88000234C3F3090304EB840205EBC202126C8B
:103E98009A4210D904EB840705EBC707D21A3A6493
:103EA80004EB840205EBC202126C5AB9314628466B
:103EB80004F088FD63E604EB840205EBC2020027E8
:103EC8001764EDE704EB840205EBC202D66B1E44CF
:103ED800D663546C2344536403F084F94FE63246A6
:103EE8002846FFF775FB4AE60020BDE8F08190F808
:103EF800A832012B0DD010B50446012380F8A83252
:103F080080F82410006803F045F9002084F8A8021E
:103F180010BD0220704710B50446006803F04BF945
:103F280010F4004F23D110F4806F24D110F4804F87
:103F380032D110F4005F39D110F4805F40D110F411
:103F4800006F67D110F0800F40F0818010F4007F7F
:103F580040F0AD8010F4807F27D02268B2F844305A
:103F68009BB223F480739BB2A2F844301DE0204634
:103F7800FFF736FD19E02268B2F844309BB223F40B
:103F880080639BB2A2F84430204604F02CFD002147
:103F98002046FFF7ACFF08E02268B2F844309BB235
:103FA80023F480439BB2A2F8443010BD2268B2F8D3
:103FB80044309BB223F400539BB2A2F84430F4E798
:103FC8002268B2F840309BB223F004039BB2A2F8F7
:103FD80040302268B2F840309BB223F008039BB20D
:103FE800A2F8403094F8E032012B0CD0204604F0BF
:103FF8001DFD2268B2F844309BB223F480539BB273
:10400800A2F84430D1E7002184F8E012204604F0F9
:10401800C5FDEBE72268B2F840309BB243F00803D5
:10402800A2F840302268B2F844309BB223F400630F
:104038009BB2A2F844302268B2F840309BB243F0F9
:104048000403A2F84030204604F0E0FCADE7226803
:10405800B2F844309BB223F080039BB2A2F84430FC
:1040680094F8E032FBB92268B2F840309BB243F0D2
:104078000403A2F840302268B2F840309BB243F003
:104088000803A2F84030012184F8E0122368B3F84D
:104098005430C3F38D0303F03C03C4F8E4322046E4
:1040A80004F07CFD81E7204604F0B0FC7DE722683F
:1040B800B2F844309BB223F400739BB2A2F84430A8
:1040C800204604F08AFC70E710B504468C4611F0CF
:1040D800800F2AD101F0070000EB8001C90001F52B
:1040E800B47E04EB0E0100EB800004EBC0004FF03F
:1040F800000E80F869E10CF0070C81F800C00A6135
:10410800CB704A780AB1A1F80EC0022B19D094F8E6
:10411800A832012B18D0012384F8A832206802F0B5
:104128000BFD002084F8A80210BD01F00700013043
:1041380000EB800104EBC1014FF0010E81F801E0B2
:10414800D9E700230B71E2E70220EDE710B504463A
:104158000B4611F0800F1FD101F0070202EB82011C
:10416800C90001F5B471014402EB820200EBC202FE
:10417800002082F8690103F007030B7094F8A83255
:10418800012B13D0012384F8A832206802F0A1FE85
:10419800002084F8A80210BD01F00702013202EBEA
:1041A800820100EBC10101204870E4E70220F2E738
:1041B80010B501F0070404EB8401C90001F5B471DE
:1041C800014404EB840C00EBCC0CCCF87C21CCF83B
:1041D80080310023CCF884318CF869318CF868413F
:1041E80024B9006802F0FEFF002010BD006802F04C
:1041F800F9FFF9E701F0070101EB810100EBC101CB
:10420800D1F88401704710B501F0070404F1010CDE
:104218000CEB8C0100EBC10104EB840E00EBCE0E1D
:10422800CEF83C20CEF8403001228EF84C20CEF853
:1042380048300023CEF844304A700CEB8C0C00F860
:104248003C4024B9006802F0CDFF002010BD006892
:1042580002F0C8FFF9E70B4601F0070241688A42FD
:104268002AD810B5044613F0800F1DD103EB830143
:10427800C90001F5B471014403EB830300EBC303E8
:10428800002083F8690101238B700A7094F8A83222
:10429800012B13D0012384F8A832206802F004FF10
:1042A800002084F8A80210BD531C03EB830100EB27
:1042B800C10101204870E6E7012070470220F2E7BB
:1042C8000B4601F00F014268914230D810B5044600
:1042D80013F0800F21D103F0070202EB8201C9001D
:1042E80001F5B471014402EB820200EBC202002026
:1042F80082F8690100228A7003F007030B7094F8B2
:10430800A832012B15D0012384F8A832206802F0C6
:10431800F0FE002084F8A80210BD03F00702013265
:1043280002EB820100EBC10101204870E2E70120A5
:1043380070470220F0E711F0800F0BD001F0070161
:10434800013101EB810100EBC10152B90A73CB8045
:104358000020704701EB8101C90001F5B4710144E7
:10436800F3E701220A730B811B0C4B81F0E703462C
:1043780002680121C0F8E812002083F8E002B2F8D0
:1043880054309BB20B43A2F85430B2F854309BB26D
:1043980043F00203A2F8543070470000002836D1D9
:1043A8003E4B1B6803F4C063B3F5806F08D03B4AEB
:1043B800D2F8803023F48073C2F880300020704730
:1043C800364AD2F8803023F48073C2F880301368FC
:1043D80023F4C06343F400731360314B1B6832222B
:1043E80002FB03F32F4AA2FB03239B0C013300E0DB
:1043F800013B2A4A526912F4806F01D0002BF7D191
:10440800264B5B6913F4806F44D100207047B0F5E8
:10441800007F08D0214A136823F4C06343F4806303
:104428001360002070471D4B1B6803F4C063B3F58D
:10443800806F08D0194AD2F8803043F48073C2F8EC
:10444800803000207047154AD2F8803043F48073DA
:10445800C2F88030136823F4C06343F40073136018
:104468000F4B1B68322202FB03F30E4AA2FB032305
:104478009B0C013300E0013B084A526912F4806F3B
:1044880001D0002BF7D1054B5B6913F4806F03D182
:1044980000207047032070470320704700700040D9
:1044A8000000002083DE1B43024A936843F48043E4
:1044B8009360704700700040124BDA6802F0030204
:1044C800D868C0F30310431C032A11D00E48B0FB70
:1044D800F3F00C4BDB68C3F3062303FB00F0094B36
:1044E800DB68C3F3416301335B00B0FBF3F0704753
:1044F8000648B0FBF3F0034BDB68C3F3062303FB6A
:1045080000F0ECE7001002400024F40000127A00EA
:10451800002800F0548270B582B00446036813F096
:10452800010F37D0A44A936803F00C03D26802F055
:1045380003020C2B23D0082B23D06368B3F5803FEC
:104548004ED0B3F5A02F51D09B4B1A6822F480327D
:104558001A601A6822F480221A606368002B52D00D
:10456800FEF774F80546944B1B6813F4003F11D10D
:10457800FEF76CF8401B6428F5D9032028E2032ACB
:10458800D9D18D4B1B6813F4003F03D06368002B0F
:1045980000F01782236813F0020F5DD0864A9368F3
:1045A80003F00C03D26802F003020C2B3AD0042B60
:1045B8003AD0E368002B75D07F4A136843F48073C0
:1045C8001360FEF743F805467B4B1B6813F4806FB6
:1045D8005FD1FEF73BF8401B0228F5D90320F7E12D
:1045E800754A136843F480331360B6E703F18043D8
:1045F800A3F53C331A6842F480221A601A6842F420
:1046080080321A60A9E7FEF721F805466A4B1B6855
:1046180013F4003FBED0FEF719F8401B6428F5D903
:104628000320D5E1022AC2D1634B1B6813F4806FC3
:1046380003D0E368002B00F0C6815F4A536823F07B
:10464800FE43216943EA016353605C4B1868FDF738
:10465800B9FF002840F0B981236813F0080F4CD047
:1046680063699BB3544AD2F8943043F00103C2F80B
:104678009430FDF7EBFF05464F4BD3F8943013F019
:10468800020F3AD1FDF7E2FF401B0228F4D90320BC
:104698009EE1494A536823F0FE43216943EA0163D6
:1046A8005360D9E7444A136823F480731360FDF715
:1046B800CDFF0546404B1B6813F4806FCCD0FDF747
:1046C800C5FF401B0228F5D9032081E13A4AD2F8F8
:1046D800943023F00103C2F89430FDF7B7FF054684
:1046E800354BD3F8943013F0020F06D0FDF7AEFF28
:1046F800401B0228F4D903206AE1236813F0040F51
:1047080000F081802C4B9B6D13F0805F36D12A4BD3
:104718009A6D42F080529A659B6D03F08053019325
:10472800019B0125264B1B6813F4807F28D0A368C2
:10473800012B39D0052B45D01F4BD3F8902022F000
:104748000102C3F89020D3F8902022F00402C3F8A5
:104758009020A368002B43D0FDF778FF0646164B40
:10476800D3F8903013F0020F4CD1FDF76FFF801B88
:1047780041F288339842F2D9032029E10025D1E794
:104788000F4A136843F480731360FDF75FFF064612
:104798000B4B1B6813F4807FC9D1FDF757FF801BB3
:1047A8000228F5D9032013E1034AD2F8903043F0E8
:1047B8000103C2F89030CCE7001002400800002046
:1047C800007000408A4BD3F8902042F00402C3F8EE
:1047D8009020D3F8902042F00102C3F89020B8E767
:1047E800FDF734FF0646824BD3F8903013F0020FE2
:1047F80008D0FDF72BFF801B41F288339842F2D98D
:104808000320E5E0E5B9236813F0200F35D0A3694C
:10481800E3B1774AD2F8983043F00103C2F89830F0
:10482800FDF714FF0546724BD3F8983013F0020FCA
:1048380023D1FDF70BFF401B0228F4D90320C7E062
:104848006B4A936D23F080539365DCE7684AD2F88E
:10485800983023F00103C2F89830FDF7F7FE0546BB
:10486800634BD3F8983013F0020F06D0FDF7EEFE35
:10487800401B0228F4D90320AAE0E369002B00F0CA
:10488800A6805B4A926802F00C020C2A69D0022BBF
:104898001DD0574B1A6822F080721A60DA6822F02D
:1048A8000302DA60DA6822F0887222F48032DA6071
:1048B800FDF7CCFE04464E4B1B6813F0007F4ED02C
:1048C800FDF7C4FE001B0228F5D9032080E0484A02
:1048D800136823F080731360FDF7B8FE0546444B58
:1048E8001B6813F0007F06D0FDF7B0FE401B0228BE
:1048F800F5D903206CE03E4AD3683E491940236A43
:10490800606A013843EA0013A06A43EA0023206B77
:104918004008013843EA4053606B4008013843EAD5
:104928004063E06A43EAC0630B43D360136843F013
:1049380080731360D36843F08073D360FDF786FEFD
:1049480004462B4B1B6813F0007F06D1FDF77EFE53
:10495800001B0228F5D903203AE0002038E00020A7
:1049680036E0012B36D0224BDB6803F00301226AC4
:10497800914231D103F0F002616A0139B2EB011FB3
:104988002CD103F4FE42A16AB2EB012F28D103F027
:104998007842E16AB2EBC16F24D103F4C001226B03
:1049A8005208013AB1EB425F1ED103F0C063626B5B
:1049B8005208013AB3EB426F18D1002008E00120F9
:1049C8007047012004E0012002E0012000E00020FF
:1049D80002B070BD0120FBE70120F9E70120F7E7ED
:1049E8000120F5E70120F3E70120F1E70120EFE7D7
:1049F800001002400C809F011E4B9B6803F00C03C3
:104A0800042B33D01B4B9B6803F00C03082B2FD0CF
:104A1800184B9B6803F00C030C2B01D00020704747
:104A2800144BDA6802F00302D868C0F30310431C81
:104A3800032A11D01048B0FBF3F00E4BDB68C3F328
:104A4800062303FB00F00B4BDB68C3F34163013320
:104A58005B00B0FBF3F070470848B0FBF3F0054B80
:104A6800DB68C3F3062303FB00F0ECE7024870475A
:104A780002487047001002400024F40000127A0037
:104A8800002800F0E680F8B50C460546744B1B6814
:104A980003F00F038B420BD2714A136823F00F0304
:104AA8000B431360136803F00F038B4240F0D3806D
:104AB8002E6816F001065FD06B68032B2FD0022BEF
:104AC8004DD0684B1B6813F4806F00F0C680FFF769
:104AD80093FF654B98424DD9624A936823F0F003DF
:104AE80043F08003936080265E4A936823F00303B3
:104AF80069680B439360FDF7A9FD0746594B9B680E
:104B080003F00C036A68B3EB820F35D0FDF79EFD06
:104B1800C01B41F288339842F0D9032078E0514B0A
:104B28001B6813F0007F01D1012071E0FFF7C4FC7E
:104B38004D4B98421AD94B4B9B6813F0F00F05D098
:104B48002E6816F00206CFD0AB688BB9454A936839
:104B580023F0F00343F0800393608026C4E7414BC1
:104B68001B6813F4003FB2D1012051E00026BBE7D7
:104B78000026B9E70026B7E72B6813F0020F48D0E4
:104B880013F0040F04D0374A936843F4E06393604A
:104B98002B6813F0080F06D0324A936823F47C532D
:104BA80043F4E06393602F4A936823F0F003A96805
:104BB8000B4393602A4B1B6803F00F03A34230D8C2
:104BC8002B6813F0040F06D0264A936823F4E06399
:104BD800E9680B4393602B6813F0080F07D0214A4C
:104BE800936823F46053296943EAC1039360FFF78C
:104BF80003FF1C4B9B68C3F303131C4AD35C03F0ED
:104C08001F03D8401A4B18601A4B1868FDF7DAFCD6
:104C1800F8BD802ECED1134A936823F0F003936039
:104C2800C8E70F4A136823F00F0323431360FDF707
:104C38000DFD06460A4B1B6803F00F03A342BFD0C5
:104C4800FDF704FD801B41F288339842F2D9032016
:104C5800DEE7012070470120DAE70120D8E700BF2E
:104C6800002002400010024000B4C40480990008EB
:104C78000000002008000020014B1868704700BFA2
:104C88000000002008B5FFF7F7FF054B9B68C3F34A
:104C98000223044AD35C03F01F03D84008BD00BFB9
:104CA800001002409099000808B5FFF7E5FF054B92
:104CB8009B68C3F3C223044AD35C03F01F03D840A4
:104CC80008BD00BF0010024090990008F0B583B0FD
:104CD8000446036813F4002F69D0AE4B9B6D13F0A4
:104CE800805F1ED1AB4B9A6D42F080529A659B6DE6
:104CF80003F080530193019B0126A74A136843F4EC
:104D080080731360FDF7A2FC0546A34B1B6813F4E0
:104D1800807F08D1FDF79AFC401B0228F5D90325AE
:104D280002E00026E9E7002545BB9A4BD3F890300E
:104D380013F4407315D0226C9A4212D0954AD2F8D7
:104D4800903023F44073D2F8901041F48031C2F8C7
:104D58009010D2F8901021F48031C2F89010C2F867
:104D6800903013F0010F10D145B98A4AD2F890302B
:104D780023F44073216C0B43C2F89030C6B1854AC6
:104D8800936D23F08053936512E0FDF75FFC0746AF
:104D9800804BD3F8903013F0020FE5D1FDF756FCA5
:104DA800C01B41F288339842F2D90325DCE700257D
:104DB800236813F0010F08D0764AD2F8883023F020
:104DC800030361680B43C2F88830236813F0020FAD
:104DD80008D0704AD2F8883023F00C03A1680B433E
:104DE800C2F88830236813F0040F08D0694AD2F853
:104DF800883023F03003E1680B43C2F88830236819
:104E080013F0080F08D0634AD2F8883023F0C003A3
:104E180021690B43C2F88830236813F0200F08D0AB
:104E28005C4AD2F8883023F4406361690B43C2F8C6
:104E38008830236813F0400F08D0564AD2F88830DB
:104E480023F44053A1690B43C2F88830236813F058
:104E5800800F08D04F4AD2F8883023F44043E169E4
:104E68000B43C2F88830236813F4807F08D0494A7E
:104E7800D2F8883023F44033216A0B43C2F88830D3
:104E8800236813F4007F08D0424AD2F8883023F40C
:104E98004023616A0B43C2F88830236813F4806F9B
:104EA8000CD03C4AD2F8883023F44013A16A0B4353
:104EB800C2F88830A36AB3F5801F57D0236813F46B
:104EC800006F0CD0334AD2F8883023F44003E16AEB
:104ED8000B43C2F88830E36AB3F5800F4BD02368E0
:104EE80013F4805F0CD02B4AD2F8883023F040733B
:104EF800216B0B43C2F88830236BB3F1807F3FD01E
:104F0800236813F4005F0CD0224AD2F8883023F0CB
:104F18004063616B0B43C2F88830636BB3F1006F79
:104F280033D0236813F4804F0CD01A4AD2F8883053
:104F380023F04063A16B0B43C2F88830A36BB3F135
:104F4800006F2BD0236813F4004F0CD0114AD2F80D
:104F5800883023F04053E16B0B43C2F88830E36B91
:104F6800B3F1805F1FD0284603B0F0BDD36843F487
:104F78008013D360A2E7D36843F48013D360AEE70D
:104F8800D36843F48013D360BAE7D36843F480133B
:104F9800D360C6E70010024000700040D36843F4B5
:104FA8008013D360CEE7D36843F48033D360DAE765
:104FB80030B4036A23F001030362036A4568826917
:104FC80022F4803222F073020C68224323F0020399
:104FD8008C6823431D4CA0420FD004F50064A04206
:104FE8000BD004F54064A04207D004F58064A042C9
:104FF80003D004F58064A04205D123F00803CC68EF
:10500800234323F00403114CA0420FD004F500649D
:10501800A0420BD004F54064A04207D004F5806498
:10502800A04203D004F58064A04207D125F4407C57
:105038004C6944EA0C0C8D6945EA0C0545608261AF
:105048004A684263036230BC704700BF002C0140CD
:1050580030B4036A23F480730362036A4468C26944
:1050680022F4803222F073020D682A4323F400737D
:105078008D6843EA0523184DA84203D005F500655D
:10508800A84206D123F40063CD6843EA052323F43C
:105098008063114DA8420FD005F50065A8420BD0DA
:1050A80005F54065A84207D005F58065A84203D0FC
:1050B80005F58065A84207D124F4405C4C694CEAA8
:1050C800041C8C694CEA04144460C2614A68C263D7
:1050D800036230BC704700BF002C014030B4036A43
:1050E80023F480530362036A4468C26922F0807221
:1050F80022F4E6420D6842EA052223F400538D6843
:1051080043EA0533174DA84203D005F50065A842C8
:1051180006D123F40043CD6843EA053323F48043E2
:10512800104DA8420FD005F50065A8420BD005F533
:105138004065A84207D005F58065A84203D005F56B
:105148008065A84207D124F4404C4C694CEA841C81
:105158008C694CEA84144460C2614A680264036240
:1051680030BC7047002C014030B4036A23F480330C
:105178000362036A4468026D22F4803222F07002EE
:105188000D682A4323F400338D6843EA05430F4D25
:10519800A8420FD005F50065A8420BD005F540657B
:1051A800A84207D005F58065A84203D005F58065BB
:1051B800A84204D124F480344D6944EA05244460AB
:1051C80002654A688264036230BC7047002C014063
:1051D80030B4036A23F480130362036A4468026DDF
:1051E80022F0807222F4E0420D6842EA052223F49C
:1051F80000138D6843EA05530F4DA8420FD005F5FB
:105208000065A8420BD005F54065A84207D005F512
:105218008065A84203D005F58065A84204D124F42E
:1052280080244D6944EA8524446002654A68C26462
:10523800036230BC704700BF002C014010B4036A01
:10524800046A24F001040462846924F0F00C4CEA36
:10525800021223F00A030B438261036210BC7047F9
:1052680010B4046A24F0100404628469036A24F404
:10527800704C4CEA023223F0A00343EA0113826126
:10528800036210BC7047836823F4401323F0700353
:105298000B4343F0070383607047704703682C4A49
:1052A80090420ED0B0F1804F0BD0A2F594329042CC
:1052B80007D002F58062904203D002F59632904200
:1052C80003D123F070034A681343214A90421AD04D
:1052D800B0F1804F17D0A2F59432904213D002F566
:1052E800806290420FD002F5963290420BD002F5C0
:1052F8004062904207D002F58062904203D002F5E6
:105308008062904203D123F44073CA68134323F0A8
:1053180080034A69134303608B68C3620B68836226
:105328000B4B98420FD003F5006398420BD003F55E
:105338004063984207D003F58063984203D003F591
:105348008063984201D10B6903630123436170476D
:10535800002C014060B310B5044690F83D3013B3FB
:10536800022384F83D30214651F8040BFFF796FFDD
:10537800012384F8483084F83E3084F83F3084F8BC
:10538800403084F8413084F8423084F8433084F85F
:10539800443084F8453084F8463084F8473084F83F
:1053A8003D30002010BD80F83C30FCF779FFD7E78E
:1053B8000120704760B310B5044690F83D3013B330
:1053C800022384F83D30214651F8040BFFF766FFAD
:1053D800012384F8483084F83E3084F83F3084F85C
:1053E800403084F8413084F8423084F8433084F8FF
:1053F800443084F8453084F8463084F8473084F8DF
:105408003D30002010BD80F83C30FFF746FFD7E75D
:105418000120704730B4036A23F010030362036A63
:105428004468826922F0807222F4E6420D6842EAFA
:10543800052223F020038D6843EA0513174DA8427F
:1054480003D005F50065A84206D123F08003CD6896
:1054580043EA051323F04003104DA8420FD005F589
:105468000065A8420BD005F54065A84207D005F5B0
:105478008065A84203D005F58065A84207D124F4C9
:10548800406C4C694CEA840C8C694CEA8404446096
:1054980082614A688263036230BC7047002C014015
:1054A80038B590F83C30012B00F0958004460D4645
:1054B800012380F83C30142A00F28880DFE802F0EB
:1054C8000B8686861F8686863486868648868686E6
:1054D8005D86868671000068FFF76AFD2268936919
:1054E80043F0080393612268936923F004039361EE
:1054F8002268936929690B439361002067E000687B
:10550800FFF788FF2268936943F400639361226878
:10551800936923F48063936122689369296943EA54
:1055280001239361002052E00068FFF791FD226893
:10553800D36943F00803D3612268D36923F00403D5
:10554800D3612268D36929690B43D36100203EE007
:105558000068FFF7C3FD2268D36943F40063D36191
:105568002268D36923F48063D3612268D3692969E7
:1055780043EA0123D361002029E00068FFF7F4FD26
:105588002268136D43F0080313652268136D23F036
:10559800040313652268136D29690B431365002002
:1055A80015E00068FFF714FE2268136D43F40063EA
:1055B80013652268136D23F4806313652268136DE5
:1055C800296943EA01231365002000E00120002334
:1055D80084F83C3038BD0220FCE710B4846824F419
:1055E8007F4C42EA03220A4342EA0C02826010BC62
:1055F8007047000090F83C30012B00F08F8010B508
:105608000446012380F83C30022380F83D300268CC
:105618009068434B034093600B68702B55D031D88A
:10562800502B6CD00CD9602B2AD1CA6849682068E5
:10563800FFF716FE60212068FFF725FE002035E001
:10564800402B0AD1CA6849682068FFF7F7FD402156
:105658002068FFF718FE002028E05BD8202B07D031
:1056680003D9302B04D0012020E00BB1102B05D139
:1056780019462068FFF707FE002017E0012015E013
:10568800012013E0B3F5005F2CD00BD9254A9342D3
:10569800EED012D9244A9342EAD030329342E7D06E
:1056A800012003E0B3F5805F36D10020012384F8A0
:1056B8003D30002384F83C3010BDB3F1101FD7D023
:1056C800103A9342D4D00120F0E7CB684A68896841
:1056D8002068FFF782FF2268936843F0770393609E
:1056E8000020E3E7CB684A6889682068FFF775FF00
:1056F8002268936843F4804393600020D6E7CA6821
:1057080049682068FFF79AFD50212068FFF7BBFD24
:105718000020CBE70120C9E70120C7E70220704736
:105728008800CEFF300010004000100001F01F017B
:10573800012303FA01FC036A23EA0C030362036AE8
:1057480002FA01F10B4303627047000010B50446EA
:105758000846002947D194F83E30DBB2013B18BF18
:105768000123002B40F09480002867D1022384F89D
:105778003E30012201462068FFF7D8FF2368474AD8
:1057880093420FD002F5006293420BD002F54062BB
:10579800934207D002F58062934203D002F58062FB
:1057A800934203D15A6C42F400425A6423683B4A3C
:1057B80093425FD0B3F1804F5CD0A2F5943293420C
:1057C80058D002F58062934254D002F59632934243
:1057D80050D002F5406293424CD01A6842F0010260
:1057E8001A60002055E004290CD0082911D00C2992
:1057F80016D010291BD094F84330DBB2013B18BFF8
:105808000123AEE794F83F30DBB2013B18BF012318
:10581800A7E794F84030DBB2013B18BF0123A0E7AB
:1058280094F84130DBB2013B18BF012399E794F8A3
:105838004230DBB2013B18BF012392E7042809D0AC
:1058480008280BD00C280DD010280FD0022384F87C
:1058580043308EE7022384F83F308AE7022384F836
:10586800403086E7022384F8413082E7022384F837
:1058780042307EE799680A4A0A40062A0AD0B2F5F9
:10588800803F09D01A6842F001021A60002000E047
:10589800012010BD0020FCE70020FAE7002C0140A1
:1058A8000700010090F83C30012B40D030B40123B0
:1058B80080F83C30022380F83D30026853689468D1
:1058C8001C4DAA4203D005F50065AA4203D123F472
:1058D80070034D682B4323F0007323F070030D68A9
:1058E8002B4353600368134A934212D0B3F1804F9D
:1058F8000FD0A2F5943293420BD002F58062934206
:1059080007D002F59632934203D002F540629342E3
:1059180004D124F080048A6814439C60012380F831
:105928003D30002380F83C30184630BC70470220D8
:10593800704700BF002C014090F83C30012B54D038
:1059480010B4012380F83C30CB6823F440738A6894
:10595800134323F480634A68134323F400630A68FB
:10596800134323F480530A69134323F400534A6909
:10597800134323F480430A6B134323F470238A6987
:1059880043EA024302681A4CA24203D004F50064B9
:10599800A24203D123F08053CC692343144CA24282
:1059A8000AD004F50064A24206D05364002380F8AC
:1059B8003C30184610BC704723F470038C6A43EAE5
:1059C800045323F080730C6A234323F000734C6A5A
:1059D8002343074CA24203D004F50064A242E4D159
:1059E80023F00053C96A0B43DFE70220704700BF6A
:1059F800002C0140026852E8003F23F4907342E80B
:105A080000310029F6D1026802F1080353E8003F8B
:105A180023F0805323F00103083242E800310029C3
:105A2800F1D1C36E012B06D02023C0F888300023A3
:105A3800C36603677047026852E8003F23F010030B
:105A480042E800310029F6D1EEE7704708B5026850
:105A580052E8003F23F0400342E800310029F6D124
:105A68002023C0F8843000234367FFF7EEFF08BD0A
:105A78007047704708B5806A0023A0F85E30A0F828
:105A88005630FFF7F6FF08BD7047000070B50446B2
:105A98000168CB6908688D6840F60F021A4008D182
:105AA80013F0200F05D010F0200F34D115F0805FCF
:105AB80031D12AB1954A2A4033D1954E304230D15E
:105AC800E26E012A00F0C38013F4801F03D015F49E
